:100000000C9477000C9494000C9494000C9494003D
:100010000C9494000C9494000C9494000C94940010
:100020000C9494000C9494000C9494000C94940000
:100030000C9494000C9494000C9494000C949400F0
:100040000C9494000C9494000C9494000C949400E0
:100050000C9494000C9494000C9494000C949400D0
:100060000C9494000C9494000A20537461636B20E8
:10007000756E64657272756E000A4C6574732050FB
:100080006C6179000A434845434B4D415445094C46
:100090006567616C3F094C617374094465707468ED
:1000A0000953636F726509285768743D3136290A10
:1000B000000A43686573734D6174650A0A0041F86C
:1000C000E9C3ABBB49FBDBB33AF1BA9A3B9331329C
:1000D00033343536373861626364656667680A00B1
:1000E0006400C800F401BC02E803D007B80B112477
:1000F0001FBECFEFD8E0DEBFCDBF11E0A0E0B1E082
:10010000E0E1F6E202C005900D92A438B107D9F7FC
:1001100024E0A4E8B1E001C01D92A731B207E1F7E5
:100120000E945D0B0C9406130C9400002F923F92DA
:100130004F925F926F927F928F929F92AF92BF92F7
:10014000CF92DF92EF92FF920F931F93CF93DF93A3
:10015000CDB7DEB7C555D1090FB6F894DEBF0FBED7
:10016000CDBF7FA36EA35E8F4D8F3F872E871DABC4
:100170000CAB6096FFAEEEAE60972091850130919A
:1001800086012F5F3F4F30938601209385012F31E9
:1001900031050CF002C55C0121E0A21AB108809182
:1001A0002E0190912F0138E1832790932F018093A6
:1001B0002E010E94B60F40913401409548232E969F
:1001C0004FAF2E9780E0312C1A8219826D8D7E8D73
:1001D00071956195710962967FAF6EAF6297A1E0EC
:1001E000B0E0EEA1FFA1AE1BBF0B6496BFAFAEAFF8
:1001F0006497F195E195F109F98BE88B2E853F85A0
:100200002C563E4F3BA72AA7232C65014424439438
:10021000480E90E060966EAD7FAD609786179707A9
:100220000CF0E1C32091320130913301422D422381
:10023000498F52E0541508F4F1C4E0913001F09177
:100240003101FBABEAABF195E195F109FA83E98362
:100250002EA13FA1E217F3070CF4B8C380910A0462
:1002600090910B0484970CF0B1C3EAA8FBA880918D
:100270009101909192010196909392018093910146
:1002800080903401909035012E967FAD2E977AAFF5
:1002900079AB842D90E09EA78DA79FEF940D2496B7
:1002A0009FAF24972D86242CB9A9AB2FB0E0B9A31A
:1002B000A8A3AC56BE4FBB8FAA8FEC91EA878E2FB6
:1002C00090E020912E0130912F0182239323892BDE
:1002D00009F46EC3E770EA8BECA72E2F30E03FAB3A
:1002E0002EABF901EA5FFE4F408925964FAF259767
:1002F00051E05F8F6A89633008F41F8E89A970E12D
:100300008727A82FB0E0AC56BE4FBEAFADAFE8A177
:10031000F9A132972196FFAFEEAF219728A139A11D
:100320002E5F3F4F23963FAF2EAF23972C563E4F65
:100330002B963FAF2EAF2B97EC56FE4F2D96FFAF6F
:10034000EEAF2D972CA527FF23C33F8D332309F450
:100350001FC321952CA73CA53595377089A98D5FC2
:1003600038273DA3432F50E059AF48AF81E08327A2
:10037000682F70E027967FAF6EAF279782E08327C4
:10038000A82FB0E02996BFAFAEAF2997EEA9FFA97D
:100390003497F8ABEFA72CA5332727FD30953CAF5A
:1003A0002BAF48A159A1420F531F59A748A7259623
:1003B0007FAD2597672F70E0675071096E2B7F2BFB
:1003C0007BA36AA3809132018C8F8CA399A99D8312
:1003D000A98DAA2309F46AC2BD85BA27BD832D81E0
:1003E000622E712CC30188219921892B09F0AACF93
:1003F0000091320110913301AAA5BBA58C9190E028
:100400002E853F85201B310B82239323892B71F08E
:10041000C301EE85FF858E1B9F0B02973CF4CF0135
:1004200086199709029714F4FA82E98255245394A5
:10043000FA89F33008F0512C2E853F856216730639
:1004400009F49CC0C301AC014C565E4F5F834E83E0
:10045000DA014C90E42DF0E0FE8BED8B20912E0123
:1004600030912F01452D50E0588F4F8B332433941A
:100470004110312C632D70E0A30188A199A1481B84
:10048000590B4770552781E090E0452B11F080E033
:1004900090E0861B970BAF89B88D8A239B234D89EB
:1004A0005E8942235323842B952B892B09F04ACF55
:1004B000E42DE770F0E0EA5DFE4F8081942D907CA2
:1004C000A92EB12CB5E28B02A00CB11C1124B7FCF3
:1004D00028C2E981FA814EA15FA1E417F5070CF467
:1004E00055C051E0521508F051C0422C2D84C40172
:1004F0008E199F09A981BA81A817B9070CF4E3C224
:10050000C701881999098A179B070CF4DCC2842D4E
:1005100041E050E0EAA9FBA9EE15FF0511F040E02B
:1005200050E029813A812E0D3F1D242B352B232BA2
:1005300011F41A8219822CA93DA9232BD1F09AAD6E
:1005400097709F59909303049AAD92959F7028E3FA
:10055000322F391B30930404922D97709F5990933A
:100560000504922D92959770291B209306041092F2
:1005700007044AAD2E964FAF2E9748CE552009F46A
:1005800061CF80E13D81832790E05DCF81E0281637
:1005900009F4C1C18D8D9E8D4DA55EA5461B570BDF
:1005A000423051050CF444C1BA89B63008F094C108
:1005B000EA8DFB8D808590E0A3014C565E4F5987F4
:1005C0004887DA0118964C91841B9109FCA14F2FA2
:1005D00050E0AA8DBB8D1C92EE81FF811082BA0182
:1005E0006C567E4F7C8B6B8BDB011C926A85606244
:1005F000E885F985608348215921452B09F477C1A5
:100600005C8D452F50E05C834B8340910A045091F0
:100610000B04B1E04E3151050CF4B0E06FA578A9A0
:100620006B2B672B09F060C164E170E0861B970BB0
:10063000552009F470C0FA01F595E795F595E79511
:10064000FC87EB8721964EAD5FAD2197482159215C
:10065000452B09F074C171E060E02D96EEADFFAD61
:100660002D974081FA85F41709F490C1472F562F32
:1006700023966EAD7FAD239786229722892809F0B5
:1006800069C1A1E0912C2B96EEADFFAD2B97608157
:10069000FA85F61709F478C16A2F792D460F571F8E
:1006A00061E070E0641B750BEDADFEAD4081E42FA1
:1006B000F0E02C5D3F4F41E050E0E217F30711F00E
:1006C00040E050E0641B750B9B01220F331F220F8B
:1006D000331F220F331F260F371F4B855C85240FD6
:1006E000351F820F931F2BAD3CAD260D371D2F5F9D
:1006F0003F4F20233123232B09F416C127E832E092
:100700006EA97FA9261B370BE885F9854081420F2A
:100710004083A20EB31E0D8D1E8D0A0D1B1D080FEA
:10072000191F49815A814C155D050CF4A6018AA94F
:100730009BA98E199F0921E0F2E0F21508F420E050
:10074000B22B8B2B892B09F4E4C081E025E0221524
:1007500008F080E03F8D832391E0698D611190E086
:100760008923832124965FAC2497581A3324339429
:10077000401751070CF0312C88249924801A910AD3
:1007800088279927841B950B9C878B8766961FAFBC
:100790000EAF669792E0951508F094C0E52CF12C09
:1007A00000E010E02B813C81A4016B857C85888969
:1007B00099890E9496009195819591095394C81644
:1007C000D9060CF478C0ACA9BDA9AB2B09F49CC028
:1007D0002091180230911902E0903001F09031011F
:1007E0002E153F0509F4CEC0AC014E0D5F1D452B03
:1007F00031F0E8A1F9A1E217F30709F470C12091E3
:100800002E012A5FAB89BC892C93E885F98510827B
:10081000EB81FC81EC56FE4F1082EA85AA8DBB8DE0
:10082000EC93AE81BF814C92809034019090350161
:10083000E981FA81E817F9075CF4F09132012C8D17
:100840002F233D81232B2D8749A94AAF9A83898382
:10085000598D5111B9C088A599A5861997092A857E
:100860002072822B6AA17BA1672B91F4E8ADF9ADD0
:10087000EC56FE4F208130E040912E0150912F0127
:10088000241B350B2630310509F467C0ADA1ACA39C
:1008900021E0BF8D2B23822B892BD9F081E0EA89BF
:1008A000E53008F080E0480E41104CCDED81FCA50C
:1008B000EF0FED8394CD521408F085CF92E095159B
:1008C00008F46CCF31106ACF66968EAD9FAD6697F7
:1008D00075CFFD81FC8FE8CF80E090E0F301EC560E
:1008E000FE4FF987E88772CE60E070E09FCE7C8D86
:1008F000672F70E07C836B83DB01AC56BE4F46E014
:10090000420F4C93C29681CEE0903001F0903101BD
:1009100076CF522C2BCFC501AEA9BFA98A1B9B0B4A
:100920003BCEFA82E982D5CD9301205F3F4F4A85C5
:10093000407250E024233523220F331FE5CE41E0DF
:1009400050E023966EAD7FAD2397862297228928AB
:1009500009F497CE61E070E0A1CE2996EEADFFAD2F
:100960002997EC56FE4F30812796EEADFFAD2797C5
:10097000EC56FE4F2081322B21E009F420E07DA1CE
:100980007CA387CF79013BCFA0E086CE70E06ECE0E
:1009900025964FAD25974F5F25964FAF2597E42FAE
:1009A000F0E0EA5FFE4F508151955CA75111D3CC26
:1009B00069A9675F882D8095682369AB2E967FAD06
:1009C0002E97761371CC91CD198EFCCC32E0EAA82B
:1009D000FBA8341508F07EC0442755274E195F093F
:1009E0005A83498344CC72E0741508F06EC081E0EC
:1009F00090E04091180250911902209130013091FD
:100A000031014217530711F080E090E0ACA9BDA975
:100A10008A239B23892B09F4D0C0B1E6B41560F07A
:100A200020919101309192018091040190910501F2
:100A3000281739070CF441C02E96EFAD2E978E2F54
:100A400090E0909319028093180280913401809570
:100A5000822180938401E12CF12C83E0482E2091A7
:100A6000320130913301922D9223998F00E010E0F2
:100A700062964EAD5FAD629764966EAD7FAD649742
:100A8000888999890E9496009BAB8AABE0903001DF
:100A9000F09031019195819591099A838983AEA156
:100AA000BFA18A179B070CF497CF80910A049091FD
:100AB0000B0484970CF090CFDACBE42CF12C83E07C
:100AC000E81AF108CCCF82E623CD70913201722171
:100AD000798FB3CB6D8D7E8D7A836983C8CB20915E
:100AE0008401FD81F2138BCE8D8D9E8D9195819524
:100AF00091098A199B0990931B0280931A022B81FA
:100B00003C8130930904209308049501220F232F80
:100B1000221F330B80910A0490910B04820F931FC4
:100B200090930B0480930A048D899E894F89588D78
:100B3000842B952B892B71F580911C0290911D02BD
:100B4000019690931D0280931C02809185019091E3
:100B50008601019790938601809385018EA19FA1C4
:100B6000CB5ADF4F0FB6F894DEBF0FBECDBFDF917B
:100B7000CF911F910F91FF90EF90DF90CF90BF909A
:100B8000AF909F908F907F906F905F904F903F902D
:100B90002F90089580E090E0D4CF88E690E00E9406
:100BA000DA0F8091850190918601019790938601DB
:100BB000809385018D8D9E8DD3CF809191019091F1
:100BC000920162E370E00E94310F892B21F485B11C
:100BD00099E0892785B980912E0190912F01F8E144
:100BE0008F2790932F0180932E0180918501909102
:100BF00086010197909386018093850181E090E0C2
:100C000029813A814D8D5E8D2417350714F080E0DF
:100C100090E069817A81860F971FA2CFE42CF12C96
:100C200063E0E61AF10822CF5F926F927F928F9273
:100C30009F92AF92BF92CF92DF92EF92FF920F936B
:100C40001F93CF93DF931092930110921F02109283
:100C50001E0281E0809310041092170210920F047C
:100C600010920E048AE090E090930D0480930C049F
:100C700080E190E090932F0180932E0110921B024F
:100C800010921A02809132019091330190930904DD
:100C90008093080410920B0410920A04E4E9F1E036
:100CA00043E252E080E090E006C00196405E5F4F74
:100CB00081389105B1F011928F309105B4F7DA01C6
:100CC00028E030E01D921D921D921D9221503109A5
:100CD00021153105B9F70196405E5F4F81389105C6
:100CE00051F7A7E0CA2ED12CB7E0EB2EF12C88E00B
:100CF00090E0C2E15C2ED9E06D2EFC01EA5FFE4F70
:100D00002789FC01EC56FE4FDF01A159BF4F38E0A7
:100D1000320F3C9387010C561E4F205FD8012C9355
:100D20005786E15AFF4F60820597889FB001899FDF
:100D3000700D700D1124882777FD8095982F0E94E3
:100D4000420E4B015C01F6E07F2EC7E002C0C72DCA
:100D5000782ED0E0BE01882777FD8095982F0E94DD
:100D6000420E20E030E040E650E40E94AF0DC29514
:100D7000D295D07FDC27C07FDC27C00FD11F9B011D
:100D8000AC010E94CE0EA50194010E94B00D0E94FC
:100D9000140E68878FEF870D8E3FC9F6B1E0CB1A2E
:100DA000D10818F0C7017601A8CF8FEF8093840196
:100DB000D0921902C0921802DF91CF911F910F912A
:100DC000FF90EF90DF90CF90BF90AF909F908F906B
:100DD0007F906F905F9008958F929F92AF92BF9295
:100DE000EF92FF920F931F93CF93DF9320911702FF
:100DF0002223E9F120910E0430910F0425303105B2
:100E0000B0F18C01000F111F02951295107F102771
:100E1000007F1027C0E0D0E0E12CF12CC8010D5775
:100E20001E4F8D5F9D4FDC01F801EC0FFD1F28E088
:100E300030E08D909D90AD90BD9041915191619128
:100E4000719184169506A606B70659F4215031090A
:100E50002115310571F7EA94EF28A9F0EE24E39407
:100E6000F12CC058D109C0382EEFD207E1F680E04E
:100E7000DF91CF911F910F91FF90EF90BF90AF90B6
:100E80009F908F90089581E0F3CFAF92BF92CF9261
:100E9000DF92EF92FF920F931F93CF93DF93CDB723
:100EA000DEB7DA950FB6F894DEBF0FBECDBF5C019A
:100EB00024E9E22E21E0F22ECE0101966C0186019A
:100EC0009701E0E0F0E022C0B0E0AA0FBB1FAA0F3C
:100ED000BB1FAC5BBE4F4D915D916D917C91843198
:100EE00021F1853138F1863199F168F1873121F4AA
:100EF0004DE050E060E070E0D8014D935D936D935C
:100F00007D938D013196E830F10561F1D9019D9114
:100F10009D01892F8F71A92FAF70A950A730A0F222
:100F200040E050E0BA018431E1F64EE050E060E08C
:100F300070E0E2CF823189F08331F1F64AE050E08F
:100F400060E070E0D9CF4BE050E060E070E0D4CFDB
:100F50004CE050E060E070E0CFCF49E050E060E06E
:100F600070E0CACFB0E1EB0EF11CE0E2CE0ED11C76
:100F7000F4E1EF16F2E0FF0609F0A1CF9501220F90
:100F8000331F22953295307F3227207F32272D5D07
:100F90003D4F01E010E00C0F1D1F1395CE0101968F
:100FA0007C01F701808D918DA28DB38D880F991FE3
:100FB000AA1FBB1F880F991FAA1FBB1F880F991F4D
:100FC000AA1FBB1F880F991FAA1FBB1F44895589E1
:100FD00066897789762F652F542F4427842B952B8C
:100FE000A62BB72B448D558D668D778D842B952B35
:100FF000A62BB72B4089518962897389032E3CE067
:10100000440F551F661F771F3A95D1F7302D842B5B
:10101000952BA62BB72B4485558566857785BA0118
:1010200055274427842B952BA62BB72B408551851C
:1010300062857385032E34E1440F551F661F771FA9
:101040003A95D1F7302D842B952BA62BB72B4481C5
:10105000558166817781742F662755274427842B15
:10106000952BA62BB72B4081518162817381ECE1D6
:10107000440F551F661F771FEA95D1F7842B952BD8
:10108000A62BB72BF90181939193A193B1939F0163
:10109000F0E2EF0EF11CE016F10609F082CFD395D5
:1010A0000FB6F894DEBF0FBECDBFDF91CF911F9179
:1010B0000F91FF90EF90DF90CF90BF90AF90089589
:1010C000EF92FF920F931F93CF93DF9389E194E008
:1010D0008130994008F0F8C0E0E0F9E080E090E06D
:1010E000329122918227932724E0E931F207C0F759
:1010F0002091B200820F911D0E94BB0F40910E04FF
:1011000050910F049A01A9E8B8E80E94450F9695FE
:10111000879596958795969587956FE0689F90013E
:10112000699F300D1124CA01821B930B0E94450751
:1011300080913001909131019093190280931802AF
:10114000409103044A30C1F02091040450EF52034F
:1011500090011124240F311D215E3C4F3093190260
:101160002093180220910504215E30910604359FDA
:10117000200D11242093840110929201109291016C
:10118000209108043091090440911A0250911B02E9
:1011900063E0E62EF12C01E010E0BC019195819511
:1011A00091090E94960090930D0480930C04209165
:1011B00091013091920130931F0220931E022091E1
:1011C0003001309131018217930709F46CC01092FD
:1011D0001702C0910E04D0910F0440912E0150913E
:1011E0002F014031510509F45AC01092100441E01A
:1011F00050E0421B530B8417950709F448C0481769
:10120000590734F48091180290911902892B59F1F1
:1012100080911C0290911D02843691051CF084E09F
:10122000809393019E01A9E8B8E80E94450F969526
:10123000879596958795969587954FE0489F90015D
:10124000499F300D1124CE01821B930B0E94EC06A6
:10125000813089F080919301DF91CF911F910F919F
:10126000FF90EF900895809184018111D1CF83E0A8
:1012700080939301CDCF239768F385E0809393010A
:10128000DF91CF911F910F91FF90EF900895809182
:1012900010048823A9F082E080939301B9CF41E044
:1012A00040931004A4CF41E040931702C0910E0474
:1012B000D0910F042196D0930F04C0930E048DCFCC
:1012C00081E080939301A4CF80E090E011CFCF9391
:1012D000DF93C091B200C295C695C695C370809148
:1012E0008B01C81709F4BFC0C0938B018FE085B98B
:1012F0008BB18C6F8BB988B18F6388B95F98000010
:1013000000000000A9B1A3FBAA27A0F981E0A8274B
:101310004A9BACC090918A0110928A0180918C0105
:101320008F7980938C01953E08F4DAC080668062E4
:1013300080938C015F9A5E9800000000000089B1E4
:10134000AA0F83FB882780F991E08927A82B4A9967
:10135000BAC0809189018F3F19F08F5F8093890116
:1013600080918C018F7E80938C015E9A459800005D
:1013700000000000E9B1459A449800000000000018
:1013800069B1449A439800000000000049B1439AB3
:10139000429800000000000029B1429A41980000E4
:1013A0000000000089B1419A409800000000000050
:1013B000D9B1AA0FBB0BB1E0E3FBEE27E0F9EB27B5
:1013C000EA2BEE0FFF0B63FB662760F96B276E2B92
:1013D000660F770B43FB442740F94B27462B440FFE
:1013E000550B23FB222720F92B27242B220F330B0D
:1013F00083FB882780F98B27822B880F990BD3FBDF
:10140000992790F99B27982B409AE9F180918801C0
:101410008F3F19F08F5F80938801909387018091AF
:101420008C01877F80938C018FEF85B9EC2FF0E0E2
:10143000E357FE4F808180958F7388B98BB1806CA4
:101440008BB99BB1808180958F6389238BB9C13023
:1014500009F452C008F44BC0C23009F452C0C33082
:1014600011F487EF85B9DF91CF91089580918A01BA
:101470008F3F19F08F5F80938A0180918C018F7D5F
:1014800080938C0157CF90918801109288018091B0
:101490008C01282F277F20938C019D3128F1807F9C
:1014A000282F286090918701983009F442C070F18C
:1014B000903209F44CC008F444C09034C1F1903823
:1014C00061F58B602AC09091890110928901809109
:1014D0008C018F7E9D3108F0806180938C0145CF17
:1014E0009D3108F427CF23CF109287019DCF8EEF37
:1014F00085B9DF91CF9108958DEF85B9DF91CF91B7
:1015000008958BEF85B9DF91CF9108959230E9F07E
:10151000943089F0913009F48E6083FF0EC0909171
:101520008A01953E50F0806880938C017DCF8F605A
:10153000F4CF8960F2CF8D60F0CF8F7780938C01EC
:1015400073CF903151F7822FE8CF8A60E6CF8C605D
:10155000E4CFCF93DF9381EB90E09F938F930E9432
:10156000DA0F0F900F9020E030E0CFEFDFEF0BC0ED
:1015700028968AE090E00E94FC0F9E012F5F3F4F6B
:101580002937310574F423FDF3CFF901EC56FE4FF2
:10159000E081EF70F0E0ED58FE4F808190E0E901CE
:1015A000EACF84E890E09F938F930E94DA0F8091B6
:1015B0002F018F9380912E018F9380910D048F9333
:1015C00080910C048F9380911F028F9380911E0253
:1015D0008F93809117021F928F93809193011F9296
:1015E0008F9380E691E09F938F930E94C60F8DB7F3
:1015F0009EB70E960FB6F8949EBF0FBE8DBF80E0CB
:10160000DF91CF91089580919301833009F448C010
:1016100088F48130C9F18230F1F483EB80938D013D
:1016200082E380938E018BED80938F018AE3809318
:10163000900108958430D9F0853069F489EE809363
:101640008D018AE980938E0182E380938F0181EF7F
:101650008093900108958AEB80938D0180E98093B7
:101660008E0180938F0181EB8093900108958BEA26
:1016700080938D018BE780938E0182EB80938F01A5
:1016800083E980939001089593E790938D0193E906
:1016900090938E0180938F0182EB80939001089547
:1016A0008BEA80938D0182EB80938E018BED80938A
:1016B0008F0182E380939001089588E10FB6F8943A
:1016C00080936000109260000FBE8FE084B985B9EE
:1016D00080EC8AB98CEF8BB98FE387B988B987E042
:1016E0008093B1000E94820D86E391E090931404F0
:1016F00080931304909312048093110489E790E07F
:101700009F938F930E94DA0F0F900F9000E0B12CFF
:10171000712CC0E0D0E21AE034E0E32EFF24FA940A
:101720004EEF542E5AEB852E60E9A62E71EB972EC4
:10173000EAEDCE2EF2E3DF2E1BC0002309F45BC0DE
:101740000130A1F481EF80938D0100938E018AE92D
:1017500080938F01EC2FE770F0E0E254FF4FE491AB
:10176000E093900180918C0183FD09C10E9467097B
:10177000023009F45FC008F30330E1F00430B1F740
:101780000E94030BC0918C01C7FD02C0712CEECFEB
:10179000EC2FE770F0E0EE0FFF1FE252FF4F859154
:1017A0009491909305018093040110928C0101E0C3
:1017B000712CDCCF10930304E0928D01F5B8809179
:1017C0008D0180958F7388B98BB1806C8BB92BB1EB
:1017D00080918D0180958F6382238BB955B80E94CB
:1017E0006008682E0E94A90A662009F451C0109270
:1017F0008C0104E0BBCFC0928D01D0928E018BEDA5
:1018000080938F0183EE80939001C0918C01C7FF7C
:10181000ADCF10928C01EC2FE770F0E0EE0FFF1FC0
:10182000E252FF4F859194919093050180930401BA
:1018300001E09CCFC0918C01C7FDBAC0C11164C04A
:10184000C3FF94CFC770872D8370813009F4F9C02E
:10185000833009F4F6C0472D50E02C2F30E0285F8C
:101860003F4FF901E253FF4F8491FA01ED5FFB4FC7
:101870008083F901E254FF4F2491FA01E357FE4FB0
:10188000208382E0871508F0739410928C016ECF4C
:10189000E0910304F0E03197E770FF27EA53FF4F30
:1018A000E491E0938D01E0910404F0E03197E7705A
:1018B000FF27E254FF4FE491E0938E01E09105048D
:1018C000F0E03197E770FF27EA53FF4FE491E09390
:1018D0008F01E0910604F0E03197E770FF27E254B2
:1018E000FF4FE491E460E093900120912E0130914C
:1018F0002F0110928C012031310509F047CF02E011
:10190000BB24B394712C32CFBB2099F010928D017F
:1019100010928E0110928F0110929001D0930304C7
:10192000D0930404D0930504D093060410930704C5
:10193000712CC4FF9EC080910304813609F465C0F8
:10194000E0928D01F5B880918D0180958F7388B9F3
:101950008BB1806C8BB92BB180918D0180958F6399
:1019600082238BB955B80E946008B82E0E94A90A3C
:10197000BB2079F110928C0104E0B12CF7CE1092CB
:101980008D0110928E0110928F0110929001D093D0
:101990000304D0930404D0930504D0930604109359
:1019A00007040E94140610928C0102E0712CDECE16
:1019B000EC2FE770F0E0EE0FFF1FE252FF4F859132
:1019C0009491909305018093040110928C0101E0A1
:1019D000CDCE80911702811128C0D0930304D093FB
:1019E0000404D0930504D093060410930704809256
:1019F0008D01A0928E01A0928F0190929001109281
:101A00008C01BB24B394712CB1CE8091040480323C
:101A100009F096CF20910401309105012C3B324012
:101A20000CF08ECF109303048BCF20912E013091B8
:101A30002F0110928C0120313105C1F003E0B12C4F
:101A400095CE272D30E04C2F50E0FA01E253FF4FA6
:101A50008491F901ED5FFB4F8083FA01E254FF4F5F
:101A60004491F901E357FE4F40830BCFBB24B3945D
:101A70007DCEC5FF45C0C6FF17C010928D011092E4
:101A80008E0110928F0110929001D0930304D09395
:101A90000404D0930504D093060410930704109215
:101AA0008C01B12C712C62CE872D83708130B0F007
:101AB000833098F0833091F4272D30E0F901ED5F09
:101AC000FB4F80818032A9F0D083F901E357FE4FAC
:101AD000108210928C01B12C49CE7A94272D30E0DF
:101AE000F901ED5FFB4FD083F901E357FE4F108200
:101AF000F0CF7A94E72DF0E0E357FE4F1082E9CF64
:101B0000B12C9ECE1092C50080E58093C400E2EC1B
:101B1000F0E0808186608083E1ECF0E08081886184
:101B20008083519A0895CF93C82F8A3051F09091B5
:101B3000C00095FFFCCFC093C60080E090E0CF913D
:101B4000089560E070E08DE00E94930DF0CF8091E9
:101B5000C00087FFFCCF8091C60090E008955058E8
:101B6000BB27AA270ED0E0C0D1D030F0D6D020F0CD
:101B700031F49F3F11F41EF4C6C00EF4E095E7FB6C
:101B8000BCC0E92FE2D080F3BA176207730784075D
:101B9000950718F071F49EF5FAC00EF4E0950B2E3F
:101BA000BA2FA02D0B01B90190010C01CA01A001AF
:101BB0001124FF27591B99F0593F50F4503E68F10A
:101BC0001A16F040A22F232F342F4427585FF3CF4B
:101BD000469537952795A795F0405395C9F77EF41C
:101BE0001F16BA0B620B730B840BBAF09150A1F065
:101BF000FF0FBB1F661F771F881FC2F70EC0BA0FEB
:101C0000621F731F841F48F4879577956795B79572
:101C1000F7959E3F08F0B3CF9395880F08F099276A
:101C2000EE0F97958795089598D088F09F5790F07C
:101C3000B92F9927B751A0F0D1F0660F771F881FF1
:101C4000991F1AF0BA95C9F712C0B13081F09FD030
:101C5000B1E008959CC0672F782F8827B85F39F0CE
:101C6000B93FCCF3869577956795B395D9F73EF450
:101C700090958095709561957F4F8F4F9F4F0895F8
:101C8000E89409C097FB3EF4909580957095619516
:101C90007F4F8F4F9F4F9923A9F0F92F96E9BB27CC
:101CA0009395F695879577956795B795F111F8CF48
:101CB000FAF4BB0F11F460FF1BC06F5F7F4F8F4FB3
:101CC0009F4F16C0882311F096E911C0772321F0A9
:101CD0009EE8872F762F05C0662371F096E8862F41
:101CE00070E060E02AF09A95660F771F881FDAF798
:101CF000880F9695879597F9089597F99F6780E8DB
:101D000070E060E008959FEF80EC089500240A944D
:101D10001616170618060906089500240A941216C6
:101D20001306140605060895092E0394000C11F4F9
:101D3000882352F0BB0F40F4BF2B11F460FF04C0A6
:101D40006F5F7F4F8F4F9F4F089557FD9058440FFF
:101D5000551F59F05F3F71F04795880F97FB991F0A
:101D600061F09F3F79F087950895121613061406C7
:101D7000551FF2CF4695F1DF08C016161706180654
:101D8000991FF1CF86957105610508940895E8942F
:101D9000BB2766277727CB0197F908950BD0C4CFCF
:101DA000B5DF28F0BADF18F0952309F0A6CFABCF46
:101DB0001124EECFCADFA0F3959FD1F3950F50E029
:101DC000551F629FF001729FBB27F00DB11D639FED
:101DD000AA27F00DB11DAA1F649F6627B00DA11D93
:101DE000661F829F2227B00DA11D621F739FB00D39
:101DF000A11D621F839FA00D611D221F749F3327A9
:101E0000A00D611D231F849F600D211D822F762F41
:101E10006A2F11249F5750408AF0E1F088234AF03E
:101E2000EE0FFF1FBB1F661F771F881F915050408A
:101E3000A9F79E3F510570F060CFAACF5F3FECF34A
:101E4000983EDCF3869577956795B795F795E79576
:101E50009F5FC1F7FE2B880F911D9695879597F987
:101E6000089597FB072E16F4009407D077FD09D04C
:101E70000E94540F07FC05D03EF4909581959F4F2A
:101E80000895709561957F4F0895A29FB001B39F0B
:101E9000C001A39F700D811D1124911DB29F700D73
:101EA000811D1124911D0895AA1BBB1B51E107C080
:101EB000AA1FBB1FA617B70710F0A61BB70B881FDA
:101EC000991F5A95A9F780959095BC01CD01089569
:101ED0008F929F92AF92BF92CF92DF92EF92FF923A
:101EE000CF93DF93EC01688179818A819B816115B1
:101EF00071058105910521F464E279ED8BE597E0A8
:101F00002DE133EF41E050E00E947B1249015A017C
:101F10009B01AC01A7EAB1E40E949A126B017C011B
:101F2000ACEEB4EFA50194010E94A812C60ED71E14
:101F3000E81EF91EF7FE06C081E0C81AD108E108C4
:101F400080E8F80AC882D982EA82FB82C6019F77BC
:101F5000DF91CF91FF90EF90DF90CF90BF90AF9047
:101F60009F908F9008950E94680F089580E091E0FF
:101F70000E94680F0895A0E0B0E080930001909364
:101F80000101A0930201B09303010895A0E0B0E025
:101F9000ECECFFE00C94BD12FE013596619171915D
:101FA000AF0180911304909114040E940310E2E0A9
:101FB0000C94D912A0E0B0E0E0EEFFE00C94BB126C
:101FC000FE0137966191719103E114E0D8018D9182
:101FD0009C91DC0113962C911397286013962C93F7
:101FE000AF010E940310D801ED91FC912381277F5E
:101FF0002383E4E00C94D7126091130470911404CD
:102000000E94EB110895ACE0B0E0E9E0F0E10C943F
:10201000AD127C016B018A01FC011782168283815B
:1020200081FFBDC1CE0101964C01F7019381F601FC
:1020300093FD859193FF81916F01882309F4ABC1D2
:10204000853239F493FD859193FF81916F0185323B
:1020500029F4B70190E00E94EB11E7CF512C312C0D
:1020600020E02032A0F48B3269F030F4803259F055
:10207000833269F420612CC08D3239F0803339F419
:10208000216026C02260246023C0286021C027FD73
:1020900027C030ED380F3A3078F426FF06C0FAE05A
:1020A0005F9E300D1124532E13C08AE0389E300DF0
:1020B0001124332E20620CC08E3221F426FD6BC118
:1020C000206406C08C3611F4206802C0883641F4C2
:1020D000F60193FD859193FF81916F018111C1CF2D
:1020E000982F9F7D9554933028F40C5F1F4FFFE38A
:1020F000F9830DC0833631F0833771F0833509F0F1
:102100005BC022C0F801808189830E5F1F4F442489
:102110004394512C540115C03801F2E06F0E711C2C
:10212000F801A080B18026FF03C0652D70E002C0D9
:102130006FEF7FEFC5012C870E94E0112C01830116
:102140002C852F77222E17C03801F2E06F0E711CFC
:10215000F801A080B18026FF03C0652D70E002C0A9
:102160006FEF7FEFC5012C870E94D5112C012C85C4
:102170002068222E830123FC1BC0832D90E048168B
:102180005906B0F4B70180E290E00E94EB113A9456
:10219000F4CFF50127FC859127FE81915F01B701FE
:1021A00090E00E94EB1131103A94F1E04F1A51087F
:1021B0004114510471F7E5C0843611F0893639F5C0
:1021C000F80127FF07C060817181828193810C5FD4
:1021D0001F4F08C060817181882777FD8095982FF7
:1021E0000E5F1F4F2F76B22E97FF09C090958095F6
:1021F000709561957F4F8F4F9F4F2068B22E2AE0D8
:1022000030E0A4010E941D12A82EA81844C08537F2
:1022100029F42F7EB22E2AE030E025C0F22FF97F7C
:10222000BF2E8F36C1F018F4883579F0B4C08037EE
:1022300019F0883721F0AFC02F2F2061B22EB4FEE5
:102240000DC08B2D8460B82E09C024FF0AC09F2FBB
:102250009660B92E06C028E030E005C020E130E0ED
:1022600002C020E132E0F801B7FE07C06081718151
:10227000828193810C5F1F4F06C06081718180E075
:1022800090E00E5F1F4FA4010E941D12A82EA818F7
:10229000FB2DFF77BF2EB6FE0BC02B2D2E7FA51476
:1022A00050F4B4FE0AC0B2FC08C02B2D2E7E05C02F
:1022B0007A2C2B2D03C07A2C01C0752C24FF0DC065
:1022C000FE01EA0DF11D8081803311F4297E09C0E1
:1022D00022FF06C07394739404C0822F867809F09D
:1022E000739423FD13C020FF06C05A2C731418F4F6
:1022F000530C5718732C731468F4B70180E290E004
:102300002C870E94EB1173942C85F5CF731410F475
:10231000371801C0312C24FF12C0B70180E390E0D0
:102320002C870E94EB112C8522FF17C021FF03C0D0
:1023300088E590E002C088E790E0B7010CC0822FEA
:10234000867859F021FD02C080E201C08BE227FDB2
:102350008DE2B70190E00E94EB11A51438F4B701AB
:1023600080E390E00E94EB115A94F7CFAA94F40115
:10237000EA0DF11D8081B70190E00E94EB11A110E0
:10238000F5CF332009F451CEB70180E290E00E94EE
:10239000EB113A94F6CFF7018681978102C08FEF57
:1023A0009FEF2C96E2E10C94C912FC01059061505C
:1023B00070400110D8F7809590958E0F9F1F08955B
:1023C000FC016150704001900110D8F78095909504
:1023D0008E0F9F1F08950F931F93CF93DF93182F96
:1023E000092FEB018B8181FD03C08FEF9FEF20C090
:1023F00082FF10C04E815F812C813D8142175307BF
:102400007CF4E881F9819F012F5F3F4F3983288356
:10241000108306C0E885F985812F0995892B29F756
:102420002E813F812F5F3F4F3F832E83812F902F3F
:10243000DF91CF911F910F910895FA01AA272830BB
:1024400051F1203181F1E8946F936E7F6E5F7F4F81
:102450008F4F9F4FAF4FB1E03ED0B4E03CD0670FFD
:10246000781F891F9A1FA11D680F791F8A1F911D50
:10247000A11D6A0F711D811D911DA11D20D009F4A0
:1024800068943F912AE0269F11243019305D3193E2
:10249000DEF6CF010895462F4770405D4193B3E0CB
:1024A0000FD0C9F7F6CF462F4F70405D4A3318F072
:1024B000495D31FD4052419302D0A9F7EACFB4E023
:1024C000A6959795879577956795BA95C9F70097DB
:1024D0006105710508959B01AC010A2E069457957C
:1024E000479537952795BA95C9F7620F731F841FD3
:1024F000951FA01D0895052E97FB1EF400940E94C1
:10250000921257FD07D00E94E41207FC03D04EF44C
:102510000C94921250954095309521953F4F4F4F16
:102520005F4F089590958095709561957F4F8F4F7F
:102530009F4F08950E94450FA59F900DB49F900D49
:10254000A49F800D911D11240895B7FF0C949A1239
:102550000E949A12821B930B08952F923F924F92E2
:102560005F926F927F928F929F92AF92BF92CF9223
:10257000DF92EF92FF920F931F93CF93DF93CDB72C
:10258000DEB7CA1BDB0B0FB6F894DEBF0FBECDBFA4
:1025900009942A88398848885F846E847D848C8475
:1025A0009B84AA84B984C884DF80EE80FD800C817E
:1025B0001B81AA81B981CE0FD11D0FB6F894DEBF61
:1025C0000FBECDBFED010895A1E21A2EAA1BBB1BC1
:1025D000FD010DC0AA1FBB1FEE1FFF1FA217B307EF
:1025E000E407F50720F0A21BB30BE40BF50B661F05
:1025F000771F881F991F1A9469F7609570958095C9
:1026000090959B01AC01BD01CF010895F894FFCFD7
:1026100001000000B004F0F1EF0001100001100F04
:1026200011000E121F210007FF0B06080306060308
:1026300005070405030600020207FF080C17100037
:10264000401F800088000000000300000000930D80
:10265000A70D0000010000000000000002000000C3
:102660000600000003000000040000000500000058
:1026700025640909256409092564090925640925D2
:10268000640A002E3F2B6E6B6272713F2A3F4E4BE5
:042690004252510061
:00000001FF
