:100000000C943D000C944F000C944F000C944F0046
:100010000C944F000C944F000C944F000C944F0024
:100020000C944F000C944F000C944F000C944F0014
:100030000C944F000C944F000C944F000C944F0004
:100040000C944F000C944F000C944F000C944F00F4
:100050000C944F000C944F000C944F000C944F00E4
:100060000C944F000C944F007B41F8E9C3ABBB49A3
:10007000FBEBDBB33AF1BA9A3BD311241FBECFEFAF
:10008000D8E0DEBFCDBF21E0A0E0B1E001C01D920D
:10009000A530B207E1F70E9484000C94A3000C94F1
:1000A00000008FE084B985B980EC8AB98BB98FE301
:1000B00087B988B986E08093810008958091000116
:1000C0008F5F837080930001E82FF0E0EF5FFE4FB9
:1000D00090819F7398B99BB1906C9BB92BB1908123
:1000E0009F6392239BB9813041F028F0823039F030
:1000F000833049F406C08EEF05C08DEF03C08BEF4F
:1001000001C087EF85B9089588E10FB6F894809310
:100110006000109260000FBE0E94510085E2809343
:1001200001018DEC8093020184E2809303018CE154
:10013000809304010E945E0081E19AE70197F1F744
:0A01400000C00000F7CFF894FFCFD5
:00000001FF
